{
  "_format": "hh-sol-artifact-1",
  "contractName": "RemoteAccount",
  "sourceName": "src/contracts/RemoteAccount.sol",
  "abi": [
    {
      "inputs": [],
      "stateMutability": "nonpayable",
      "type": "constructor"
    },
    {
      "inputs": [
        {
          "internalType": "uint256",
          "name": "index",
          "type": "uint256"
        },
        {
          "internalType": "bytes",
          "name": "reason",
          "type": "bytes"
        }
      ],
      "name": "ContractCallFailed",
      "type": "error"
    },
    {
      "inputs": [
        {
          "internalType": "address",
          "name": "owner",
          "type": "address"
        }
      ],
      "name": "OwnableInvalidOwner",
      "type": "error"
    },
    {
      "inputs": [
        {
          "internalType": "address",
          "name": "account",
          "type": "address"
        }
      ],
      "name": "OwnableUnauthorizedAccount",
      "type": "error"
    },
    {
      "anonymous": false,
      "inputs": [
        {
          "indexed": true,
          "internalType": "address",
          "name": "previousOwner",
          "type": "address"
        },
        {
          "indexed": true,
          "internalType": "address",
          "name": "newOwner",
          "type": "address"
        }
      ],
      "name": "OwnershipTransferred",
      "type": "event"
    },
    {
      "anonymous": false,
      "inputs": [
        {
          "indexed": true,
          "internalType": "address",
          "name": "sender",
          "type": "address"
        },
        {
          "indexed": false,
          "internalType": "uint256",
          "name": "amount",
          "type": "uint256"
        }
      ],
      "name": "Received",
      "type": "event"
    },
    {
      "inputs": [
        {
          "components": [
            {
              "internalType": "address",
              "name": "target",
              "type": "address"
            },
            {
              "internalType": "bytes",
              "name": "data",
              "type": "bytes"
            },
            {
              "internalType": "uint256",
              "name": "value",
              "type": "uint256"
            }
          ],
          "internalType": "struct ContractCall[]",
          "name": "calls",
          "type": "tuple[]"
        }
      ],
      "name": "executeCalls",
      "outputs": [],
      "stateMutability": "payable",
      "type": "function"
    },
    {
      "inputs": [],
      "name": "owner",
      "outputs": [
        {
          "internalType": "address",
          "name": "",
          "type": "address"
        }
      ],
      "stateMutability": "view",
      "type": "function"
    },
    {
      "inputs": [],
      "name": "renounceOwnership",
      "outputs": [],
      "stateMutability": "nonpayable",
      "type": "function"
    },
    {
      "inputs": [
        {
          "internalType": "address",
          "name": "newOwner",
          "type": "address"
        }
      ],
      "name": "transferOwnership",
      "outputs": [],
      "stateMutability": "nonpayable",
      "type": "function"
    },
    {
      "stateMutability": "payable",
      "type": "receive"
    }
  ],
  "bytecode": "0x608060405234801561001057600080fd5b50338061003757604051631e4fbdf760e01b81526000600482015260240160405180910390fd5b61004081610046565b50610096565b600080546001600160a01b038381166001600160a01b0319831681178455604051919092169283917f8be0079c531659141344cd1fd0a4f28419497f9722a3daafe3b4186f6b6457e09190a35050565b61062a806100a56000396000f3fe6080604052600436106100435760003560e01c8063715018a61461008457806382f007aa1461009b5780638da5cb5b146100ae578063f2fde38b146100e757600080fd5b3661007f5760405134815233907f88a5966d370b9919b20f3e2c13ff65706f196a4e32cc2c12bf57088f885258749060200160405180910390a2005b600080fd5b34801561009057600080fd5b50610099610107565b005b6100996100a93660046103e5565b61011b565b3480156100ba57600080fd5b506000546040805173ffffffffffffffffffffffffffffffffffffffff9092168252519081900360200190f35b3480156100f357600080fd5b5061009961010236600461045a565b6102b9565b61010f61031d565b6101196000610370565b565b61012361031d565b341561015f5760405134815233907f88a5966d370b9919b20f3e2c13ff65706f196a4e32cc2c12bf57088f885258749060200160405180910390a25b8060005b818110156102b35760008085858481811061018057610180610497565b905060200281019061019291906104c6565b6101a090602081019061045a565b73ffffffffffffffffffffffffffffffffffffffff168686858181106101c8576101c8610497565b90506020028101906101da91906104c6565b604001358787868181106101f0576101f0610497565b905060200281019061020291906104c6565b610210906020810190610504565b60405161021e929190610570565b60006040518083038185875af1925050503d806000811461025b576040519150601f19603f3d011682016040523d82523d6000602084013e610260565b606091505b5091509150816102a95782816040517f8fe5eee30000000000000000000000000000000000000000000000000000000081526004016102a0929190610580565b60405180910390fd5b5050600101610163565b50505050565b6102c161031d565b73ffffffffffffffffffffffffffffffffffffffff8116610311576040517f1e4fbdf7000000000000000000000000000000000000000000000000000000008152600060048201526024016102a0565b61031a81610370565b50565b60005473ffffffffffffffffffffffffffffffffffffffff163314610119576040517f118cdaa70000000000000000000000000000000000000000000000000000000081523360048201526024016102a0565b6000805473ffffffffffffffffffffffffffffffffffffffff8381167fffffffffffffffffffffffff0000000000000000000000000000000000000000831681178455604051919092169283917f8be0079c531659141344cd1fd0a4f28419497f9722a3daafe3b4186f6b6457e09190a35050565b600080602083850312156103f857600080fd5b823567ffffffffffffffff8082111561041057600080fd5b818501915085601f83011261042457600080fd5b81358181111561043357600080fd5b8660208260051b850101111561044857600080fd5b60209290920196919550909350505050565b60006020828403121561046c57600080fd5b813573ffffffffffffffffffffffffffffffffffffffff8116811461049057600080fd5b9392505050565b7f4e487b7100000000000000000000000000000000000000000000000000000000600052603260045260246000fd5b600082357fffffffffffffffffffffffffffffffffffffffffffffffffffffffffffffffa18336030181126104fa57600080fd5b9190910192915050565b60008083357fffffffffffffffffffffffffffffffffffffffffffffffffffffffffffffffe184360301811261053957600080fd5b83018035915067ffffffffffffffff82111561055457600080fd5b60200191503681900382131561056957600080fd5b9250929050565b8183823760009101908152919050565b82815260006020604081840152835180604085015260005b818110156105b457858101830151858201606001528201610598565b5060006060828601015260607fffffffffffffffffffffffffffffffffffffffffffffffffffffffffffffffe0601f83011685010192505050939250505056fea2646970667358221220c67c809016f099f84fabfc47f7dd5a69d5702042de9585e1730b0590613363cc64736f6c63430008140033",
  "linkReferences": {},
  "deployedLinkReferences": {}
}