{
  "_format": "hh-sol-artifact-1",
  "contractName": "RemoteAccount",
  "sourceName": "src/contracts/RemoteAccount.sol",
  "abi": [
    {
      "inputs": [],
      "stateMutability": "nonpayable",
      "type": "constructor"
    },
    {
      "inputs": [
        {
          "internalType": "address",
          "name": "target",
          "type": "address"
        },
        {
          "internalType": "bytes4",
          "name": "selector",
          "type": "bytes4"
        },
        {
          "internalType": "uint32",
          "name": "callIndex",
          "type": "uint32"
        },
        {
          "internalType": "bytes",
          "name": "reason",
          "type": "bytes"
        }
      ],
      "name": "ContractCallFailed",
      "type": "error"
    },
    {
      "inputs": [
        {
          "internalType": "address",
          "name": "owner",
          "type": "address"
        }
      ],
      "name": "OwnableInvalidOwner",
      "type": "error"
    },
    {
      "inputs": [
        {
          "internalType": "address",
          "name": "account",
          "type": "address"
        }
      ],
      "name": "OwnableUnauthorizedAccount",
      "type": "error"
    },
    {
      "anonymous": false,
      "inputs": [
        {
          "indexed": true,
          "internalType": "address",
          "name": "target",
          "type": "address"
        },
        {
          "indexed": false,
          "internalType": "bytes4",
          "name": "selector",
          "type": "bytes4"
        },
        {
          "indexed": false,
          "internalType": "uint32",
          "name": "callIndex",
          "type": "uint32"
        },
        {
          "indexed": false,
          "internalType": "uint64",
          "name": "gasUsed",
          "type": "uint64"
        }
      ],
      "name": "ContractCallSuccess",
      "type": "event"
    },
    {
      "anonymous": false,
      "inputs": [
        {
          "indexed": true,
          "internalType": "address",
          "name": "previousOwner",
          "type": "address"
        },
        {
          "indexed": true,
          "internalType": "address",
          "name": "newOwner",
          "type": "address"
        }
      ],
      "name": "OwnershipTransferred",
      "type": "event"
    },
    {
      "anonymous": false,
      "inputs": [
        {
          "indexed": true,
          "internalType": "address",
          "name": "sender",
          "type": "address"
        },
        {
          "indexed": false,
          "internalType": "uint256",
          "name": "amount",
          "type": "uint256"
        }
      ],
      "name": "Received",
      "type": "event"
    },
    {
      "inputs": [
        {
          "components": [
            {
              "internalType": "address",
              "name": "target",
              "type": "address"
            },
            {
              "internalType": "bytes",
              "name": "data",
              "type": "bytes"
            },
            {
              "internalType": "uint192",
              "name": "value",
              "type": "uint192"
            },
            {
              "internalType": "uint64",
              "name": "gasLimit",
              "type": "uint64"
            }
          ],
          "internalType": "struct ContractCall[]",
          "name": "calls",
          "type": "tuple[]"
        }
      ],
      "name": "executeCalls",
      "outputs": [],
      "stateMutability": "payable",
      "type": "function"
    },
    {
      "inputs": [],
      "name": "owner",
      "outputs": [
        {
          "internalType": "address",
          "name": "",
          "type": "address"
        }
      ],
      "stateMutability": "view",
      "type": "function"
    },
    {
      "inputs": [],
      "name": "renounceOwnership",
      "outputs": [],
      "stateMutability": "nonpayable",
      "type": "function"
    },
    {
      "inputs": [
        {
          "internalType": "address",
          "name": "newOwner",
          "type": "address"
        }
      ],
      "name": "transferOwnership",
      "outputs": [],
      "stateMutability": "nonpayable",
      "type": "function"
    },
    {
      "stateMutability": "payable",
      "type": "receive"
    }
  ],
  "bytecode": "0x6080604052348015600f57600080fd5b503380603557604051631e4fbdf760e01b81526000600482015260240160405180910390fd5b603c816041565b506091565b600080546001600160a01b038381166001600160a01b0319831681178455604051919092169283917f8be0079c531659141344cd1fd0a4f28419497f9722a3daafe3b4186f6b6457e09190a35050565b61098f806100a06000396000f3fe6080604052600436106100435760003560e01c806351da8ce214610084578063715018a6146100995780638da5cb5b146100ae578063f2fde38b146100e757600080fd5b3661007f5760405134815233907f88a5966d370b9919b20f3e2c13ff65706f196a4e32cc2c12bf57088f885258749060200160405180910390a2005b600080fd5b6100976100923660046105c4565b610107565b005b3480156100a557600080fd5b5061009761042f565b3480156100ba57600080fd5b506000546040805173ffffffffffffffffffffffffffffffffffffffff9092168252519081900360200190f35b3480156100f357600080fd5b5061009761010236600461063b565b610443565b61010f6104a7565b341561014b5760405134815233907f88a5966d370b9919b20f3e2c13ff65706f196a4e32cc2c12bf57088f885258749060200160405180910390a25b8060005a905060005b82811015610428573685858381811061016f5761016f610678565b905060200281019061018191906106a7565b905036600061019360208401846106e5565b909250905060006101a7602085018561063b565b905060006101bb6080860160608701610751565b67ffffffffffffffff16905060008160000361026f5773ffffffffffffffffffffffffffffffffffffffff83166101f8606088016040890161077b565b77ffffffffffffffffffffffffffffffffffffffffffffffff1686866040516102229291906107b5565b60006040518083038185875af1925050503d806000811461025f576040519150601f19603f3d011682016040523d82523d6000602084013e610264565b606091505b50508091505061030b565b73ffffffffffffffffffffffffffffffffffffffff8316610296606088016040890161077b565b77ffffffffffffffffffffffffffffffffffffffffffffffff16839087876040516102c29291906107b5565b600060405180830381858888f193505050503d8060008114610300576040519150601f19603f3d011682016040523d82523d6000602084013e610305565b606091505b50909150505b6000600485106103225761031f85876107c5565b90505b8782610372578482826103336104fa565b6040517f7ffbef74000000000000000000000000000000000000000000000000000000008152600401610369949392919061082b565b60405180910390fd5b60005a90506000610383828d6108ea565b604080517fffffffff000000000000000000000000000000000000000000000000000000008716815263ffffffff8616602082015267ffffffffffffffff8316818301529051939d508d9391925073ffffffffffffffffffffffffffffffffffffffff8916917fe9a9745c27c99a8a79ab25b83aa5c7f38c55c6e1181f5bd5584b01d67b0dcb179181900360600190a28a6001019a5050505050505050505050610154565b5050505050565b6104376104a7565b610441600061054f565b565b61044b6104a7565b73ffffffffffffffffffffffffffffffffffffffff811661049b576040517f1e4fbdf700000000000000000000000000000000000000000000000000000000815260006004820152602401610369565b6104a48161054f565b50565b60005473ffffffffffffffffffffffffffffffffffffffff163314610441576040517f118cdaa7000000000000000000000000000000000000000000000000000000008152336004820152602401610369565b60603d8067ffffffffffffffff8111156105165761051661092a565b6040519080825280601f01601f191660200182016040528015610540576020820181803683370190505b509150806000602084013e5090565b6000805473ffffffffffffffffffffffffffffffffffffffff8381167fffffffffffffffffffffffff0000000000000000000000000000000000000000831681178455604051919092169283917f8be0079c531659141344cd1fd0a4f28419497f9722a3daafe3b4186f6b6457e09190a35050565b600080602083850312156105d757600080fd5b823567ffffffffffffffff8111156105ee57600080fd5b8301601f810185136105ff57600080fd5b803567ffffffffffffffff81111561061657600080fd5b8560208260051b840101111561062b57600080fd5b6020919091019590945092505050565b60006020828403121561064d57600080fd5b813573ffffffffffffffffffffffffffffffffffffffff8116811461067157600080fd5b9392505050565b7f4e487b7100000000000000000000000000000000000000000000000000000000600052603260045260246000fd5b600082357fffffffffffffffffffffffffffffffffffffffffffffffffffffffffffffff818336030181126106db57600080fd5b9190910192915050565b60008083357fffffffffffffffffffffffffffffffffffffffffffffffffffffffffffffffe184360301811261071a57600080fd5b83018035915067ffffffffffffffff82111561073557600080fd5b60200191503681900382131561074a57600080fd5b9250929050565b60006020828403121561076357600080fd5b813567ffffffffffffffff8116811461067157600080fd5b60006020828403121561078d57600080fd5b813577ffffffffffffffffffffffffffffffffffffffffffffffff8116811461067157600080fd5b8183823760009101908152919050565b80357fffffffff000000000000000000000000000000000000000000000000000000008116906004841015610824577fffffffff00000000000000000000000000000000000000000000000000000000808560040360031b1b82161691505b5092915050565b73ffffffffffffffffffffffffffffffffffffffff851681527fffffffff000000000000000000000000000000000000000000000000000000008416602082015263ffffffff83166040820152608060608201526000825180608084015260005b818110156108a957602081860181015160a086840101520161088c565b50600060a0828501015260a07fffffffffffffffffffffffffffffffffffffffffffffffffffffffffffffffe0601f83011684010191505095945050505050565b81810381811115610924577f4e487b7100000000000000000000000000000000000000000000000000000000600052601160045260246000fd5b92915050565b7f4e487b7100000000000000000000000000000000000000000000000000000000600052604160045260246000fdfea2646970667358221220b095dc3f031ff74c7a602f493cc66f789af42e689364664d327ebfe589de60ed64736f6c634300081a0033",
  "linkReferences": {},
  "deployedLinkReferences": {}
}