{
  "_format": "hh-sol-artifact-1",
  "contractName": "Wallet",
  "sourceName": "src/__tests__/contracts/Factory.sol",
  "abi": [
    {
      "inputs": [
        {
          "internalType": "address",
          "name": "gateway_",
          "type": "address"
        },
        {
          "internalType": "address",
          "name": "gasReceiver_",
          "type": "address"
        },
        {
          "internalType": "string",
          "name": "owner_",
          "type": "string"
        }
      ],
      "stateMutability": "payable",
      "type": "constructor"
    },
    {
      "inputs": [
        {
          "internalType": "string",
          "name": "messageId",
          "type": "string"
        },
        {
          "internalType": "uint256",
          "name": "step",
          "type": "uint256"
        }
      ],
      "name": "ContractCallFailed",
      "type": "error"
    },
    {
      "inputs": [],
      "name": "InvalidAddress",
      "type": "error"
    },
    {
      "inputs": [
        {
          "internalType": "string",
          "name": "expected",
          "type": "string"
        },
        {
          "internalType": "string",
          "name": "actual",
          "type": "string"
        }
      ],
      "name": "InvalidSourceChain",
      "type": "error"
    },
    {
      "inputs": [],
      "name": "NotApprovedByGateway",
      "type": "error"
    },
    {
      "inputs": [
        {
          "internalType": "string",
          "name": "owner",
          "type": "string"
        }
      ],
      "name": "OwnableInvalidOwner",
      "type": "error"
    },
    {
      "inputs": [
        {
          "internalType": "string",
          "name": "account",
          "type": "string"
        }
      ],
      "name": "OwnableUnauthorizedAccount",
      "type": "error"
    },
    {
      "anonymous": false,
      "inputs": [
        {
          "indexed": true,
          "internalType": "string",
          "name": "id",
          "type": "string"
        },
        {
          "indexed": true,
          "internalType": "uint256",
          "name": "callIndex",
          "type": "uint256"
        },
        {
          "indexed": true,
          "internalType": "address",
          "name": "target",
          "type": "address"
        },
        {
          "indexed": false,
          "internalType": "bytes4",
          "name": "methodSelector",
          "type": "bytes4"
        },
        {
          "indexed": false,
          "internalType": "bool",
          "name": "success",
          "type": "bool"
        }
      ],
      "name": "CallStatus",
      "type": "event"
    },
    {
      "anonymous": false,
      "inputs": [
        {
          "indexed": true,
          "internalType": "string",
          "name": "id",
          "type": "string"
        },
        {
          "indexed": false,
          "internalType": "bool",
          "name": "success",
          "type": "bool"
        },
        {
          "indexed": false,
          "internalType": "uint256",
          "name": "totalCalls",
          "type": "uint256"
        }
      ],
      "name": "MulticallStatus",
      "type": "event"
    },
    {
      "anonymous": false,
      "inputs": [
        {
          "indexed": true,
          "internalType": "string",
          "name": "previousOwner",
          "type": "string"
        },
        {
          "indexed": true,
          "internalType": "string",
          "name": "newOwner",
          "type": "string"
        }
      ],
      "name": "OwnershipTransferred",
      "type": "event"
    },
    {
      "anonymous": false,
      "inputs": [
        {
          "indexed": true,
          "internalType": "address",
          "name": "sender",
          "type": "address"
        },
        {
          "indexed": false,
          "internalType": "uint256",
          "name": "amount",
          "type": "uint256"
        }
      ],
      "name": "Received",
      "type": "event"
    },
    {
      "stateMutability": "payable",
      "type": "fallback"
    },
    {
      "inputs": [
        {
          "internalType": "bytes32",
          "name": "commandId",
          "type": "bytes32"
        },
        {
          "internalType": "string",
          "name": "sourceChain",
          "type": "string"
        },
        {
          "internalType": "string",
          "name": "sourceAddress",
          "type": "string"
        },
        {
          "internalType": "bytes",
          "name": "payload",
          "type": "bytes"
        }
      ],
      "name": "execute",
      "outputs": [],
      "stateMutability": "nonpayable",
      "type": "function"
    },
    {
      "inputs": [],
      "name": "gasService",
      "outputs": [
        {
          "internalType": "contract IAxelarGasService",
          "name": "",
          "type": "address"
        }
      ],
      "stateMutability": "view",
      "type": "function"
    },
    {
      "inputs": [],
      "name": "gateway",
      "outputs": [
        {
          "internalType": "contract IAxelarGateway",
          "name": "",
          "type": "address"
        }
      ],
      "stateMutability": "view",
      "type": "function"
    },
    {
      "inputs": [],
      "name": "owner",
      "outputs": [
        {
          "internalType": "string",
          "name": "",
          "type": "string"
        }
      ],
      "stateMutability": "view",
      "type": "function"
    },
    {
      "stateMutability": "payable",
      "type": "receive"
    }
  ],
  "bytecode": "0x60a0604052604051620011d0380380620011d08339810160408190526200002691620001ed565b80836001600160a01b038116620000505760405163e6c4247b60e01b815260040160405180910390fd5b6001600160a01b0316608052620000678162000090565b5050600180546001600160a01b0319166001600160a01b03929092169190911790555062000446565b6000808054620000a090620002cd565b80601f0160208091040260200160405190810160405280929190818152602001828054620000ce90620002cd565b80156200011f5780601f10620000f3576101008083540402835291602001916200011f565b820191906000526020600020905b8154815290600101906020018083116200010157829003601f168201915b5050505050905081600090816200013791906200035c565b508160405162000148919062000428565b60405180910390208160405162000160919062000428565b604051908190038120907f389b68744f66ab26b44498e30dc68a44d33e15738476faa4017fd247ce75269d90600090a35050565b80516001600160a01b0381168114620001ac57600080fd5b919050565b634e487b7160e01b600052604160045260246000fd5b60005b83811015620001e4578181015183820152602001620001ca565b50506000910152565b6000806000606084860312156200020357600080fd5b6200020e8462000194565b92506200021e6020850162000194565b60408501519092506001600160401b03808211156200023c57600080fd5b818601915086601f8301126200025157600080fd5b815181811115620002665762000266620001b1565b604051601f8201601f19908116603f01168101908382118183101715620002915762000291620001b1565b81604052828152896020848701011115620002ab57600080fd5b620002be836020830160208801620001c7565b80955050505050509250925092565b600181811c90821680620002e257607f821691505b6020821081036200030357634e487b7160e01b600052602260045260246000fd5b50919050565b601f8211156200035757600081815260208120601f850160051c81016020861015620003325750805b601f850160051c820191505b8181101562000353578281556001016200033e565b5050505b505050565b81516001600160401b03811115620003785762000378620001b1565b6200039081620003898454620002cd565b8462000309565b602080601f831160018114620003c85760008415620003af5750858301515b600019600386901b1c1916600185901b17855562000353565b600085815260208120601f198616915b82811015620003f957888601518255948401946001909101908401620003d8565b5085821015620004185787850151600019600388901b60f8161c191681555b5050505050600190811b01905550565b600082516200043c818460208701620001c7565b9190910192915050565b608051610d68620004686000396000818160c1015261019d0152610d686000f3fe6080604052600436106100435760003560e01c8063116191b6146100b2578063491606581461010b5780636a22d8cc1461012d5780638da5cb5b1461015a57610080565b366100805760405134815233907f88a5966d370b9919b20f3e2c13ff65706f196a4e32cc2c12bf57088f88525874906020015b60405180910390a2005b60405134815233907f88a5966d370b9919b20f3e2c13ff65706f196a4e32cc2c12bf57088f8852587490602001610076565b3480156100be57600080fd5b507f00000000000000000000000000000000000000000000000000000000000000005b60405173ffffffffffffffffffffffffffffffffffffffff90911681526020015b60405180910390f35b34801561011757600080fd5b5061012b610126366004610712565b61017c565b005b34801561013957600080fd5b506001546100e19073ffffffffffffffffffffffffffffffffffffffff1681565b34801561016657600080fd5b5061016f610293565b6040516101029190610824565b6000828260405161018e92919061083e565b604051809103902090506101bf7f000000000000000000000000000000000000000000000000000000000000000090565b73ffffffffffffffffffffffffffffffffffffffff16635f6970c38989898989876040518763ffffffff1660e01b815260040161020196959493929190610897565b6020604051808303816000875af1158015610220573d6000803e3d6000fd5b505050506040513d601f19601f8201168201806040525081019061024491906108d8565b61027a576040517f500c44b400000000000000000000000000000000000000000000000000000000815260040160405180910390fd5b61028988888888888888610325565b5050505050505050565b6060600080546102a2906108fa565b80601f01602080910402602001604051908101604052809291908181526020018280546102ce906108fa565b801561031b5780601f106102f05761010080835404028352916020019161031b565b820191906000526020600020905b8154815290600101906020018083116102fe57829003601f168201915b5050505050905090565b83836103318282610429565b604080518082018252600681527f61676f7269630000000000000000000000000000000000000000000000000000602090910152517fbc70107bd74737942ebf6e41376d77235fcea1557eb923b21951909060a4483290610395908a908a9061083e565b60405180910390201461041457604080518082018252600681527f61676f7269630000000000000000000000000000000000000000000000000000602082015290517f82bbb05600000000000000000000000000000000000000000000000000000000815261040b91908a908a9060040161094d565b60405180910390fd5b61041e848461048f565b505050505050505050565b818160405161043992919061083e565b6040518091039020610449610293565b805190602001201461048b5781816040517fde6a3cbf00000000000000000000000000000000000000000000000000000000815260040161040b92919061097d565b5050565b600061049d82840184610ab6565b602081015180519192509060005b818110156106715760008382815181106104c7576104c7610c75565b60200260200101516000015173ffffffffffffffffffffffffffffffffffffffff168483815181106104fb576104fb610c75565b6020026020010151602001516040516105149190610ca4565b6000604051808303816000865af19150503d8060008114610551576040519150601f19603f3d011682016040523d82523d6000602084013e610556565b606091505b50509050806105965784516040517f97232f6a00000000000000000000000000000000000000000000000000000000815261040b91908490600401610cc0565b8382815181106105a8576105a8610c75565b60200260200101516000015173ffffffffffffffffffffffffffffffffffffffff168286600001516040516105dd9190610ca4565b60405180910390207f84d20e81c523f57b7f548410041e25d47c248131b5ad8929e327c7fea385877187868151811061061857610618610c75565b60200260200101516020015161062d90610ce2565b604080517fffffffff00000000000000000000000000000000000000000000000000000000909216825286151560208301520160405180910390a4506001016104ab565b5082516040516106819190610ca4565b604080519182900382208451600184526020840152917fe2a693b88dfd82f48393d7b1b5219cbfdeedce9ab088c301e358c1fbbf65c527910160405180910390a25050505050565b60008083601f8401126106db57600080fd5b50813567ffffffffffffffff8111156106f357600080fd5b60208301915083602082850101111561070b57600080fd5b9250929050565b60008060008060008060006080888a03121561072d57600080fd5b87359650602088013567ffffffffffffffff8082111561074c57600080fd5b6107588b838c016106c9565b909850965060408a013591508082111561077157600080fd5b61077d8b838c016106c9565b909650945060608a013591508082111561079657600080fd5b506107a38a828b016106c9565b989b979a50959850939692959293505050565b60005b838110156107d15781810151838201526020016107b9565b50506000910152565b600081518084526107f28160208601602086016107b6565b601f017fffffffffffffffffffffffffffffffffffffffffffffffffffffffffffffffe0169290920160200192915050565b60208152600061083760208301846107da565b9392505050565b8183823760009101908152919050565b8183528181602085013750600060208284010152600060207fffffffffffffffffffffffffffffffffffffffffffffffffffffffffffffffe0601f840116840101905092915050565b8681526080602082015260006108b160808301878961084e565b82810360408401526108c481868861084e565b915050826060830152979650505050505050565b6000602082840312156108ea57600080fd5b8151801515811461083757600080fd5b600181811c9082168061090e57607f821691505b602082108103610947577f4e487b7100000000000000000000000000000000000000000000000000000000600052602260045260246000fd5b50919050565b60408152600061096060408301866107da565b828103602084015261097381858761084e565b9695505050505050565b60208152600061099160208301848661084e565b949350505050565b7f4e487b7100000000000000000000000000000000000000000000000000000000600052604160045260246000fd5b6040805190810167ffffffffffffffff811182821017156109eb576109eb610999565b60405290565b604051601f82017fffffffffffffffffffffffffffffffffffffffffffffffffffffffffffffffe016810167ffffffffffffffff81118282101715610a3857610a38610999565b604052919050565b600067ffffffffffffffff831115610a5a57610a5a610999565b610a8b60207fffffffffffffffffffffffffffffffffffffffffffffffffffffffffffffffe0601f860116016109f1565b9050828152838383011115610a9f57600080fd5b828260208301376000602084830101529392505050565b60006020808385031215610ac957600080fd5b823567ffffffffffffffff80821115610ae157600080fd5b81850191506040808388031215610af757600080fd5b610aff6109c8565b833583811115610b0e57600080fd5b8401601f81018913610b1f57600080fd5b610b2d898235888401610a40565b8252508484013583811115610b4157600080fd5b80850194505087601f850112610b5657600080fd5b833583811115610b6857610b68610999565b8060051b610b778782016109f1565b918252858101870191878101908b841115610b9157600080fd5b88880192505b83831015610c6057823587811115610baf5760008081fd5b8801808d037fffffffffffffffffffffffffffffffffffffffffffffffffffffffffffffffe001871315610be35760008081fd5b610beb6109c8565b8a82013573ffffffffffffffffffffffffffffffffffffffff81168114610c125760008081fd5b81528188013589811115610c265760008081fd5b8083019250508d603f830112610c3c5760008081fd5b610c4c8e8c8401358a8501610a40565b818c01528352509188019190880190610b97565b97840197909752509098975050505050505050565b7f4e487b7100000000000000000000000000000000000000000000000000000000600052603260045260246000fd5b60008251610cb68184602087016107b6565b9190910192915050565b604081526000610cd360408301856107da565b90508260208301529392505050565b6000815160208301517fffffffff0000000000000000000000000000000000000000000000000000000080821693506004831015610d2a5780818460040360031b1b83161693505b50505091905056fea2646970667358221220ca833b9c20708fb272781a7faf6791094e082b72fbb18648e36794bafc7541e864736f6c63430008140033",
  "linkReferences": {},
  "deployedLinkReferences": {}
}